{
  "contractName": "Kongtama",
  "abi": [
    {
      "inputs": [
        {
          "internalType": "address",
          "name": "owner",
          "type": "address"
        },
        {
          "internalType": "address",
          "name": "proxyRegistryAddress",
          "type": "address"
        },
        {
          "internalType": "uint256",
          "name": "price",
          "type": "uint256"
        },
        {
          "internalType": "uint256",
          "name": "maxMint",
          "type": "uint256"
        },
        {
          "internalType": "string",
          "name": "baseMetadataURI",
          "type": "string"
        }
      ],
      "stateMutability": "nonpayable",
      "type": "constructor"
    },
    {
      "anonymous": false,
      "inputs": [
        {
          "indexed": true,
          "internalType": "address",
          "name": "owner",
          "type": "address"
        },
        {
          "indexed": true,
          "internalType": "address",
          "name": "approved",
          "type": "address"
        },
        {
          "indexed": true,
          "internalType": "uint256",
          "name": "tokenId",
          "type": "uint256"
        }
      ],
      "name": "Approval",
      "type": "event"
    },
    {
      "anonymous": false,
      "inputs": [
        {
          "indexed": true,
          "internalType": "address",
          "name": "owner",
          "type": "address"
        },
        {
          "indexed": true,
          "internalType": "address",
          "name": "operator",
          "type": "address"
        },
        {
          "indexed": false,
          "internalType": "bool",
          "name": "approved",
          "type": "bool"
        }
      ],
      "name": "ApprovalForAll",
      "type": "event"
    },
    {
      "anonymous": false,
      "inputs": [
        {
          "indexed": true,
          "internalType": "address",
          "name": "previousOwner",
          "type": "address"
        },
        {
          "indexed": true,
          "internalType": "address",
          "name": "newOwner",
          "type": "address"
        }
      ],
      "name": "OwnershipTransferred",
      "type": "event"
    },
    {
      "anonymous": false,
      "inputs": [
        {
          "indexed": true,
          "internalType": "address",
          "name": "from",
          "type": "address"
        },
        {
          "indexed": true,
          "internalType": "address",
          "name": "to",
          "type": "address"
        },
        {
          "indexed": true,
          "internalType": "uint256",
          "name": "tokenId",
          "type": "uint256"
        }
      ],
      "name": "Transfer",
      "type": "event"
    },
    {
      "inputs": [
        {
          "internalType": "address",
          "name": "to",
          "type": "address"
        },
        {
          "internalType": "uint256",
          "name": "tokenId",
          "type": "uint256"
        }
      ],
      "name": "approve",
      "outputs": [],
      "stateMutability": "nonpayable",
      "type": "function"
    },
    {
      "inputs": [
        {
          "internalType": "address",
          "name": "owner",
          "type": "address"
        }
      ],
      "name": "balanceOf",
      "outputs": [
        {
          "internalType": "uint256",
          "name": "",
          "type": "uint256"
        }
      ],
      "stateMutability": "view",
      "type": "function",
      "constant": true
    },
    {
      "inputs": [
        {
          "internalType": "uint256",
          "name": "tokenId",
          "type": "uint256"
        }
      ],
      "name": "getApproved",
      "outputs": [
        {
          "internalType": "address",
          "name": "",
          "type": "address"
        }
      ],
      "stateMutability": "view",
      "type": "function",
      "constant": true
    },
    {
      "inputs": [
        {
          "internalType": "address",
          "name": "",
          "type": "address"
        }
      ],
      "name": "mintsPerWallet",
      "outputs": [
        {
          "internalType": "uint8",
          "name": "",
          "type": "uint8"
        }
      ],
      "stateMutability": "view",
      "type": "function",
      "constant": true
    },
    {
      "inputs": [],
      "name": "name",
      "outputs": [
        {
          "internalType": "string",
          "name": "",
          "type": "string"
        }
      ],
      "stateMutability": "view",
      "type": "function",
      "constant": true
    },
    {
      "inputs": [],
      "name": "owner",
      "outputs": [
        {
          "internalType": "address",
          "name": "",
          "type": "address"
        }
      ],
      "stateMutability": "view",
      "type": "function",
      "constant": true
    },
    {
      "inputs": [
        {
          "internalType": "uint256",
          "name": "tokenId",
          "type": "uint256"
        }
      ],
      "name": "ownerOf",
      "outputs": [
        {
          "internalType": "address",
          "name": "",
          "type": "address"
        }
      ],
      "stateMutability": "view",
      "type": "function",
      "constant": true
    },
    {
      "inputs": [],
      "name": "renounceOwnership",
      "outputs": [],
      "stateMutability": "nonpayable",
      "type": "function"
    },
    {
      "inputs": [
        {
          "internalType": "address",
          "name": "from",
          "type": "address"
        },
        {
          "internalType": "address",
          "name": "to",
          "type": "address"
        },
        {
          "internalType": "uint256",
          "name": "tokenId",
          "type": "uint256"
        }
      ],
      "name": "safeTransferFrom",
      "outputs": [],
      "stateMutability": "nonpayable",
      "type": "function"
    },
    {
      "inputs": [
        {
          "internalType": "address",
          "name": "from",
          "type": "address"
        },
        {
          "internalType": "address",
          "name": "to",
          "type": "address"
        },
        {
          "internalType": "uint256",
          "name": "tokenId",
          "type": "uint256"
        },
        {
          "internalType": "bytes",
          "name": "_data",
          "type": "bytes"
        }
      ],
      "name": "safeTransferFrom",
      "outputs": [],
      "stateMutability": "nonpayable",
      "type": "function"
    },
    {
      "inputs": [
        {
          "internalType": "address",
          "name": "operator",
          "type": "address"
        },
        {
          "internalType": "bool",
          "name": "approved",
          "type": "bool"
        }
      ],
      "name": "setApprovalForAll",
      "outputs": [],
      "stateMutability": "nonpayable",
      "type": "function"
    },
    {
      "inputs": [
        {
          "internalType": "bytes4",
          "name": "interfaceId",
          "type": "bytes4"
        }
      ],
      "name": "supportsInterface",
      "outputs": [
        {
          "internalType": "bool",
          "name": "",
          "type": "bool"
        }
      ],
      "stateMutability": "view",
      "type": "function",
      "constant": true
    },
    {
      "inputs": [],
      "name": "symbol",
      "outputs": [
        {
          "internalType": "string",
          "name": "",
          "type": "string"
        }
      ],
      "stateMutability": "view",
      "type": "function",
      "constant": true
    },
    {
      "inputs": [
        {
          "internalType": "address",
          "name": "from",
          "type": "address"
        },
        {
          "internalType": "address",
          "name": "to",
          "type": "address"
        },
        {
          "internalType": "uint256",
          "name": "tokenId",
          "type": "uint256"
        }
      ],
      "name": "transferFrom",
      "outputs": [],
      "stateMutability": "nonpayable",
      "type": "function"
    },
    {
      "inputs": [
        {
          "internalType": "address",
          "name": "newOwner",
          "type": "address"
        }
      ],
      "name": "transferOwnership",
      "outputs": [],
      "stateMutability": "nonpayable",
      "type": "function"
    },
    {
      "inputs": [
        {
          "internalType": "uint256",
          "name": "newPrice",
          "type": "uint256"
        }
      ],
      "name": "setPrice",
      "outputs": [],
      "stateMutability": "nonpayable",
      "type": "function"
    },
    {
      "inputs": [
        {
          "internalType": "uint256",
          "name": "newMaxMint",
          "type": "uint256"
        }
      ],
      "name": "setMaxMint",
      "outputs": [],
      "stateMutability": "nonpayable",
      "type": "function"
    },
    {
      "inputs": [
        {
          "internalType": "uint256",
          "name": "newMaxMintPerWallet",
          "type": "uint256"
        }
      ],
      "name": "setMaxMintPerWallet",
      "outputs": [],
      "stateMutability": "nonpayable",
      "type": "function"
    },
    {
      "inputs": [
        {
          "internalType": "address",
          "name": "newProxyRegistryAddress",
          "type": "address"
        }
      ],
      "name": "setProxyRegistryAddress",
      "outputs": [],
      "stateMutability": "nonpayable",
      "type": "function"
    },
    {
      "inputs": [
        {
          "internalType": "string",
          "name": "_newBaseMetadataURI",
          "type": "string"
        }
      ],
      "name": "setBaseMetadataURI",
      "outputs": [],
      "stateMutability": "nonpayable",
      "type": "function"
    },
    {
      "inputs": [],
      "name": "getNextTokenID",
      "outputs": [
        {
          "internalType": "uint256",
          "name": "",
          "type": "uint256"
        }
      ],
      "stateMutability": "view",
      "type": "function",
      "constant": true
    },
    {
      "inputs": [
        {
          "internalType": "uint8",
          "name": "amount",
          "type": "uint8"
        }
      ],
      "name": "mint",
      "outputs": [],
      "stateMutability": "payable",
      "type": "function",
      "payable": true
    },
    {
      "inputs": [
        {
          "internalType": "address",
          "name": "owner",
          "type": "address"
        },
        {
          "internalType": "address",
          "name": "operator",
          "type": "address"
        }
      ],
      "name": "isApprovedForAll",
      "outputs": [
        {
          "internalType": "bool",
          "name": "",
          "type": "bool"
        }
      ],
      "stateMutability": "view",
      "type": "function",
      "constant": true
    },
    {
      "inputs": [
        {
          "internalType": "uint256",
          "name": "_id",
          "type": "uint256"
        }
      ],
      "name": "tokenURI",
      "outputs": [
        {
          "internalType": "string",
          "name": "",
          "type": "string"
        }
      ],
      "stateMutability": "view",
      "type": "function",
      "constant": true
    },
    {
      "inputs": [],
      "name": "withdraw",
      "outputs": [],
      "stateMutability": "nonpayable",
      "type": "function"
    },
    {
      "inputs": [],
      "name": "getPrice",
      "outputs": [
        {
          "internalType": "uint256",
          "name": "",
          "type": "uint256"
        }
      ],
      "stateMutability": "view",
      "type": "function",
      "constant": true
    },
    {
      "inputs": [],
      "name": "getMaxMint",
      "outputs": [
        {
          "internalType": "uint256",
          "name": "",
          "type": "uint256"
        }
      ],
      "stateMutability": "view",
      "type": "function",
      "constant": true
    },
    {
      "inputs": [],
      "name": "getMaxMintperWallet",
      "outputs": [
        {
          "internalType": "uint256",
          "name": "",
          "type": "uint256"
        }
      ],
      "stateMutability": "view",
      "type": "function",
      "constant": true
    }
  ],
  "bytecode": "0x6080604052600a80553480156200001557600080fd5b506040516200245038038062002450833981016040819052620000389162000210565b604051806040016040528060088152602001674b6f6e6774616d6160c01b815250604051806040016040528060048152602001634b6f6e6760e01b815250866200008881620000fd60201b60201c565b5081516200009e9060019060208501906200014d565b508051620000b49060029060208401906200014d565b50505060088390556009829055600780546001600160a01b0319166001600160a01b0386161790558051620000f190600c9060208401906200014d565b50505050505062000376565b600080546001600160a01b038381166001600160a01b0319831681178455604051919092169283917f8be0079c531659141344cd1fd0a4f28419497f9722a3daafe3b4186f6b6457e09190a35050565b8280546200015b9062000323565b90600052602060002090601f0160209004810192826200017f5760008555620001ca565b82601f106200019a57805160ff1916838001178555620001ca565b82800160010185558215620001ca579182015b82811115620001ca578251825591602001919060010190620001ad565b50620001d8929150620001dc565b5090565b5b80821115620001d85760008155600101620001dd565b80516001600160a01b03811681146200020b57600080fd5b919050565b600080600080600060a0868803121562000228578081fd5b6200023386620001f3565b9450602062000244818801620001f3565b6040880151606089015160808a015192975090955093506001600160401b038082111562000270578384fd5b818901915089601f83011262000284578384fd5b81518181111562000299576200029962000360565b604051601f8201601f19908116603f01168101908382118183101715620002c457620002c462000360565b816040528281528c86848701011115620002dc578687fd5b8693505b82841015620002ff5784840186015181850187015292850192620002e0565b828411156200031057868684830101525b8096505050505050509295509295909350565b6002810460018216806200033857607f821691505b602082108114156200035a57634e487b7160e01b600052602260045260246000fd5b50919050565b634e487b7160e01b600052604160045260246000fd5b6120ca80620003866000396000f3fe6080604052600436106101b75760003560e01c8063715018a6116100ec578063afdf61341161008a578063d26ea6c011610064578063d26ea6c0146104a3578063d317f967146104c3578063e985e9c5146104d8578063f2fde38b146104f8576101b7565b8063afdf613414610443578063b88d4fde14610463578063c87b56dd14610483576101b7565b806391b7f5ed116100c657806391b7f5ed146103d957806395d89b41146103f957806398d5fdca1461040e578063a22cb46514610423576101b7565b8063715018a61461038f5780637e518ec8146103a45780638da5cb5b146103c4576101b7565b806342842e0e11610159578063547520fe11610133578063547520fe1461031c5780636352211e1461033c5780636ecd23061461035c57806370a082311461036f576101b7565b806342842e0e146102ba5780634a198119146102da5780634d0df5fc146102ef576101b7565b8063095ea7b311610195578063095ea7b3146102415780631f46452f1461026357806323b872dd146102855780633ccfd60b146102a5576101b7565b806301ffc9a7146101bc57806306fdde03146101f2578063081812fc14610214575b600080fd5b3480156101c857600080fd5b506101dc6101d73660046117a5565b610518565b6040516101e991906119b7565b60405180910390f35b3480156101fe57600080fd5b50610207610560565b6040516101e991906119c2565b34801561022057600080fd5b5061023461022f36600461183f565b6105f2565b6040516101e99190611966565b34801561024d57600080fd5b5061026161025c36600461177a565b61063e565b005b34801561026f57600080fd5b506102786106d6565b6040516101e99190611ee7565b34801561029157600080fd5b506102616102a036600461168c565b6106dc565b3480156102b157600080fd5b50610261610714565b3480156102c657600080fd5b506102616102d536600461168c565b610757565b3480156102e657600080fd5b50610278610772565b3480156102fb57600080fd5b5061030f61030a366004611631565b610788565b6040516101e99190611ef0565b34801561032857600080fd5b5061026161033736600461183f565b61079d565b34801561034857600080fd5b5061023461035736600461183f565b6107e1565b61026161036a366004611857565b610816565b34801561037b57600080fd5b5061027861038a366004611631565b610973565b34801561039b57600080fd5b506102616109b7565b3480156103b057600080fd5b506102616103bf3660046117f9565b610a02565b3480156103d057600080fd5b50610234610a58565b3480156103e557600080fd5b506102616103f436600461183f565b610a67565b34801561040557600080fd5b50610207610aab565b34801561041a57600080fd5b50610278610aba565b34801561042f57600080fd5b5061026161043e366004611749565b610ac0565b34801561044f57600080fd5b5061026161045e36600461183f565b610ad2565b34801561046f57600080fd5b5061026161047e3660046116cc565b610b16565b34801561048f57600080fd5b5061020761049e36600461183f565b610b55565b3480156104af57600080fd5b506102616104be366004611631565b610bd9565b3480156104cf57600080fd5b50610278610c3a565b3480156104e457600080fd5b506101dc6104f3366004611654565b610c40565b34801561050457600080fd5b50610261610513366004611631565b610cf6565b60006001600160e01b031982166380ac58cd60e01b148061054957506001600160e01b03198216635b5e139f60e01b145b80610558575061055882610d64565b90505b919050565b60606001805461056f90611fbd565b80601f016020809104026020016040519081016040528092919081815260200182805461059b90611fbd565b80156105e85780601f106105bd576101008083540402835291602001916105e8565b820191906000526020600020905b8154815290600101906020018083116105cb57829003601f168201915b5050505050905090565b60006105fd82610d7d565b6106225760405162461bcd60e51b815260040161061990611d5f565b60405180910390fd5b506000908152600560205260409020546001600160a01b031690565b6000610649826107e1565b9050806001600160a01b0316836001600160a01b0316141561067d5760405162461bcd60e51b815260040161061990611e25565b806001600160a01b031661068f610d9a565b6001600160a01b031614806106ab57506106ab816104f3610d9a565b6106c75760405162461bcd60e51b815260040161061990611bdb565b6106d18383610d9e565b505050565b60095490565b6106ed6106e7610d9a565b82610e0c565b6107095760405162461bcd60e51b815260040161061990611e66565b6106d1838383610e89565b61071c610a58565b6001600160a01b03166108fc479081150290604051600060405180830381858888f19350505050158015610754573d6000803e3d6000fd5b50565b6106d183838360405180602001604052806000815250610b16565b6000600b5460016107839190611f0a565b905090565b600d6020526000908152604090205460ff1681565b6107a5610d9a565b6001600160a01b03166107b6610a58565b6001600160a01b0316146107dc5760405162461bcd60e51b815260040161061990611df0565b600955565b6000818152600360205260408120546001600160a01b0316806105585760405162461bcd60e51b815260040161061990611c82565b60008160ff16116108395760405162461bcd60e51b815260040161061990611bb0565b600b5460095461084c60ff841683611f0a565b111561086a5760405162461bcd60e51b815260040161061990611eb7565b6000610874610a58565b90506000610880610d9a565b9050816001600160a01b0316816001600160a01b031614156108ae576108a68185610fbc565b505050610754565b600a546001600160a01b0382166000908152600d60205260409020546108d890869060ff16611f22565b60ff1611156108f95760405162461bcd60e51b815260040161061990611ccb565b600854349061090b60ff871682611f5b565b82101561092a5760405162461bcd60e51b815260040161061990611d37565b6040516001600160a01b0385169083156108fc029084906000818181858888f19350505050158015610960573d6000803e3d6000fd5b5061096b8387610fbc565b505050505050565b60006001600160a01b03821661099b5760405162461bcd60e51b815260040161061990611c38565b506001600160a01b031660009081526004602052604090205490565b6109bf610d9a565b6001600160a01b03166109d0610a58565b6001600160a01b0316146109f65760405162461bcd60e51b815260040161061990611df0565b610a006000611036565b565b610a0a610d9a565b6001600160a01b0316610a1b610a58565b6001600160a01b031614610a415760405162461bcd60e51b815260040161061990611df0565b8051610a5490600c906020840190611522565b5050565b6000546001600160a01b031690565b610a6f610d9a565b6001600160a01b0316610a80610a58565b6001600160a01b031614610aa65760405162461bcd60e51b815260040161061990611df0565b600855565b60606002805461056f90611fbd565b60085490565b610a54610acb610d9a565b8383611086565b610ada610d9a565b6001600160a01b0316610aeb610a58565b6001600160a01b031614610b115760405162461bcd60e51b815260040161061990611df0565b600a55565b610b27610b21610d9a565b83610e0c565b610b435760405162461bcd60e51b815260040161061990611e66565b610b4f84848484611129565b50505050565b6060610b6082610d7d565b610b7c5760405162461bcd60e51b815260040161061990611dab565b6000600c8054610b8b90611fbd565b905011610ba75760405180602001604052806000815250610558565b600c610bb28361115c565b604051602001610bc39291906118c0565b6040516020818303038152906040529050919050565b610be1610d9a565b6001600160a01b0316610bf2610a58565b6001600160a01b031614610c185760405162461bcd60e51b815260040161061990611df0565b600780546001600160a01b0319166001600160a01b0392909216919091179055565b600a5490565b60075460405163c455279160e01b81526000916001600160a01b039081169190841690829063c455279190610c79908890600401611966565b60206040518083038186803b158015610c9157600080fd5b505afa158015610ca5573d6000803e3d6000fd5b505050506040513d601f19601f82011682018060405250810190610cc991906117dd565b6001600160a01b03161415610ce2576001915050610cf0565b610cec848461127f565b9150505b92915050565b610cfe610d9a565b6001600160a01b0316610d0f610a58565b6001600160a01b031614610d355760405162461bcd60e51b815260040161061990611df0565b6001600160a01b038116610d5b5760405162461bcd60e51b815260040161061990611a27565b61075481611036565b6001600160e01b031981166301ffc9a760e01b14919050565b6000908152600360205260409020546001600160a01b0316151590565b3390565b600081815260056020526040902080546001600160a01b0319166001600160a01b0384169081179091558190610dd3826107e1565b6001600160a01b03167f8c5be1e5ebec7d5bd14f71427d1e84f3dd0314c0f7b2291e5b200ac8c7c3b92560405160405180910390a45050565b6000610e1782610d7d565b610e335760405162461bcd60e51b815260040161061990611b64565b6000610e3e836107e1565b9050806001600160a01b0316846001600160a01b03161480610e795750836001600160a01b0316610e6e846105f2565b6001600160a01b0316145b80610cec5750610cec8185610c40565b826001600160a01b0316610e9c826107e1565b6001600160a01b031614610ec25760405162461bcd60e51b815260040161061990611a6d565b6001600160a01b038216610ee85760405162461bcd60e51b815260040161061990611ae9565b610ef38383836106d1565b610efe600082610d9e565b6001600160a01b0383166000908152600460205260408120805460019290610f27908490611f7a565b90915550506001600160a01b0382166000908152600460205260408120805460019290610f55908490611f0a565b909155505060008181526003602052604080822080546001600160a01b0319166001600160a01b0386811691821790925591518493918716917fddf252ad1be2c89b69c2b068fc378daa952ba7f163c4a11628f55a4df523b3ef91a46106d18383836106d1565b60005b8160ff168110156106d157610fd26112ad565b600b546001600160a01b0384166000908152600d6020526040812080546001929061100190849060ff16611f22565b92506101000a81548160ff021916908360ff16021790555061102384826112c4565b508061102e81611ff8565b915050610fbf565b600080546001600160a01b038381166001600160a01b0319831681178455604051919092169283917f8be0079c531659141344cd1fd0a4f28419497f9722a3daafe3b4186f6b6457e09190a35050565b816001600160a01b0316836001600160a01b031614156110b85760405162461bcd60e51b815260040161061990611b2d565b6001600160a01b0383811660008181526006602090815260408083209487168084529490915290819020805460ff1916851515179055517f17307eab39ab6107e8899845ad3d59bd9653f200f220920489ca2b5937696c319061111c9085906119b7565b60405180910390a3505050565b611134848484610e89565b611140848484846112de565b610b4f5760405162461bcd60e51b8152600401610619906119d5565b60608161118157506040805180820190915260018152600360fc1b602082015261055b565b8160005b81156111ab578061119581611ff8565b91506111a49050600a83611f47565b9150611185565b60008167ffffffffffffffff8111156111d457634e487b7160e01b600052604160045260246000fd5b6040519080825280601f01601f1916602001820160405280156111fe576020820181803683370190505b5090505b841561127757611213600183611f7a565b9150611220600a86612013565b61122b906030611f0a565b60f81b81838151811061124e57634e487b7160e01b600052603260045260246000fd5b60200101906001600160f81b031916908160001a905350611270600a86611f47565b9450611202565b949350505050565b6001600160a01b03918216600090815260066020908152604080832093909416825291909152205460ff1690565b600b80549060006112bd83611ff8565b9190505550565b610a548282604051806020016040528060008152506113f9565b60006112f2846001600160a01b031661142c565b156113ee57836001600160a01b031663150b7a0261130e610d9a565b8786866040518563ffffffff1660e01b8152600401611330949392919061197a565b602060405180830381600087803b15801561134a57600080fd5b505af192505050801561137a575060408051601f3d908101601f19168201909252611377918101906117c1565b60015b6113d4573d8080156113a8576040519150601f19603f3d011682016040523d82523d6000602084013e6113ad565b606091505b5080516113cc5760405162461bcd60e51b8152600401610619906119d5565b805181602001fd5b6001600160e01b031916630a85bd0160e11b149050611277565b506001949350505050565b611403838361143b565b61141060008484846112de565b6106d15760405162461bcd60e51b8152600401610619906119d5565b6001600160a01b03163b151590565b6001600160a01b0382166114615760405162461bcd60e51b815260040161061990611d02565b61146a81610d7d565b156114875760405162461bcd60e51b815260040161061990611ab2565b611493600083836106d1565b6001600160a01b03821660009081526004602052604081208054600192906114bc908490611f0a565b909155505060008181526003602052604080822080546001600160a01b0319166001600160a01b03861690811790915590518392907fddf252ad1be2c89b69c2b068fc378daa952ba7f163c4a11628f55a4df523b3ef908290a4610a54600083836106d1565b82805461152e90611fbd565b90600052602060002090601f0160209004810192826115505760008555611596565b82601f1061156957805160ff1916838001178555611596565b82800160010185558215611596579182015b8281111561159657825182559160200191906001019061157b565b506115a29291506115a6565b5090565b5b808211156115a257600081556001016115a7565b600067ffffffffffffffff808411156115d6576115d6612053565b604051601f8501601f19908116603f011681019082821181831017156115fe576115fe612053565b8160405280935085815286868601111561161757600080fd5b858560208301376000602087830101525050509392505050565b600060208284031215611642578081fd5b813561164d81612069565b9392505050565b60008060408385031215611666578081fd5b823561167181612069565b9150602083013561168181612069565b809150509250929050565b6000806000606084860312156116a0578081fd5b83356116ab81612069565b925060208401356116bb81612069565b929592945050506040919091013590565b600080600080608085870312156116e1578081fd5b84356116ec81612069565b935060208501356116fc81612069565b925060408501359150606085013567ffffffffffffffff81111561171e578182fd5b8501601f8101871361172e578182fd5b61173d878235602084016115bb565b91505092959194509250565b6000806040838503121561175b578182fd5b823561176681612069565b915060208301358015158114611681578182fd5b6000806040838503121561178c578182fd5b823561179781612069565b946020939093013593505050565b6000602082840312156117b6578081fd5b813561164d8161207e565b6000602082840312156117d2578081fd5b815161164d8161207e565b6000602082840312156117ee578081fd5b815161164d81612069565b60006020828403121561180a578081fd5b813567ffffffffffffffff811115611820578182fd5b8201601f81018413611830578182fd5b610cec848235602084016115bb565b600060208284031215611850578081fd5b5035919050565b600060208284031215611868578081fd5b813560ff8116811461164d578182fd5b60008151808452611890816020860160208601611f91565b601f01601f19169290920160200192915050565b600081516118b6818560208601611f91565b9290920192915050565b82546000908190600281046001808316806118dc57607f831692505b60208084108214156118fc57634e487b7160e01b87526022600452602487fd5b81801561191057600181146119215761194d565b60ff1986168952848901965061194d565b61192a8b611efe565b885b868110156119455781548b82015290850190830161192c565b505084890196505b50505050505061195d81856118a4565b95945050505050565b6001600160a01b0391909116815260200190565b6001600160a01b03858116825284166020820152604081018390526080606082018190526000906119ad90830184611878565b9695505050505050565b901515815260200190565b60006020825261164d6020830184611878565b60208082526032908201527f4552433732313a207472616e7366657220746f206e6f6e20455243373231526560408201527131b2b4bb32b91034b6b83632b6b2b73a32b960711b606082015260800190565b60208082526026908201527f4f776e61626c653a206e6577206f776e657220697320746865207a65726f206160408201526564647265737360d01b606082015260800190565b60208082526025908201527f4552433732313a207472616e736665722066726f6d20696e636f72726563742060408201526437bbb732b960d91b606082015260800190565b6020808252601c908201527f4552433732313a20746f6b656e20616c7265616479206d696e74656400000000604082015260600190565b60208082526024908201527f4552433732313a207472616e7366657220746f20746865207a65726f206164646040820152637265737360e01b606082015260800190565b60208082526019908201527f4552433732313a20617070726f766520746f2063616c6c657200000000000000604082015260600190565b6020808252602c908201527f4552433732313a206f70657261746f7220717565727920666f72206e6f6e657860408201526b34b9ba32b73a103a37b5b2b760a11b606082015260800190565b60208082526011908201527015dc9bdb99c818985d18da08185b5bdd5d607a1b604082015260600190565b60208082526038908201527f4552433732313a20617070726f76652063616c6c6572206973206e6f74206f7760408201527f6e6572206e6f7220617070726f76656420666f7220616c6c0000000000000000606082015260800190565b6020808252602a908201527f4552433732313a2062616c616e636520717565727920666f7220746865207a65604082015269726f206164647265737360b01b606082015260800190565b60208082526029908201527f4552433732313a206f776e657220717565727920666f72206e6f6e657869737460408201526832b73a103a37b5b2b760b91b606082015260800190565b60208082526018908201527f52656163686564206d61784d696e7450657257616c6c65740000000000000000604082015260600190565b6020808252818101527f4552433732313a206d696e7420746f20746865207a65726f2061646472657373604082015260600190565b6020808252600e908201526d09cdee840cadcdeeaced0408aa8960931b604082015260600190565b6020808252602c908201527f4552433732313a20617070726f76656420717565727920666f72206e6f6e657860408201526b34b9ba32b73a103a37b5b2b760a11b606082015260800190565b60208082526025908201527f4552433732315472616461626c65237572693a204e4f4e4558495354454e545f6040820152642a27a5a2a760d91b606082015260800190565b6020808252818101527f4f776e61626c653a2063616c6c6572206973206e6f7420746865206f776e6572604082015260600190565b60208082526021908201527f4552433732313a20617070726f76616c20746f2063757272656e74206f776e656040820152603960f91b606082015260800190565b60208082526031908201527f4552433732313a207472616e736665722063616c6c6572206973206e6f74206f6040820152701ddb995c881b9bdc88185c1c1c9bdd9959607a1b606082015260800190565b602080825260169082015275105b5bdd5b9d081c995858da195cc81b585e135a5b9d60521b604082015260600190565b90815260200190565b60ff91909116815260200190565b60009081526020902090565b60008219821115611f1d57611f1d612027565b500190565b600060ff821660ff84168060ff03821115611f3f57611f3f612027565b019392505050565b600082611f5657611f5661203d565b500490565b6000816000190483118215151615611f7557611f75612027565b500290565b600082821015611f8c57611f8c612027565b500390565b60005b83811015611fac578181015183820152602001611f94565b83811115610b4f5750506000910152565b600281046001821680611fd157607f821691505b60208210811415611ff257634e487b7160e01b600052602260045260246000fd5b50919050565b600060001982141561200c5761200c612027565b5060010190565b6000826120225761202261203d565b500690565b634e487b7160e01b600052601160045260246000fd5b634e487b7160e01b600052601260045260246000fd5b634e487b7160e01b600052604160045260246000fd5b6001600160a01b038116811461075457600080fd5b6001600160e01b03198116811461075457600080fdfea264697066735822122050dde6d9623c872133b6fec38f80809ef4f471f7e739964816894dc9f3cb284b64736f6c63430008010033",
  "immutableReferences": {},
  "source": "// SPDX-License-Identifier: MIT\n\npragma solidity ^0.8.0;\n\nimport \"@openzeppelin/contracts/token/ERC721/ERC721.sol\";\nimport \"@openzeppelin/contracts/utils/Strings.sol\";\nimport \"@openzeppelin/contracts/utils/Context.sol\";\n\nimport \"./Ownable.sol\";\n\ncontract OwnableDelegateProxy {}\n\n/**\n * Used to delegate ownership of a contract to another address, to save on unneeded transactions to approve contract use for users\n */\ncontract ProxyRegistry {\n    mapping(address => OwnableDelegateProxy) public proxies;\n}\n\ncontract Kongtama is Ownable, ERC721 {\n    using Strings for uint256;\n\n    address private _proxyRegistryAddress;\n\n    uint256 private _price;\n    uint256 private _maxMint;\n    uint256 private _maxMintPerWallet = 10;  \n    uint256 private _currentTokenID;\n\n\n    string private _baseMetadataURI;\n    mapping(address => uint8) public mintsPerWallet;\n\n    constructor(\n        address owner, \n        address proxyRegistryAddress, \n        uint256 price, \n        uint256 maxMint,\n        string memory baseMetadataURI\n    ) ERC721(\"Kongtama\", \"Kong\") Ownable(owner) {\n        _price = price;\n        _maxMint = maxMint;\n        _proxyRegistryAddress = proxyRegistryAddress;\n        _baseMetadataURI = baseMetadataURI;\n    }\n\n    /***********************************|\n    |        Ownable Functions          |\n    |__________________________________*/\n\n    function setPrice(uint256 newPrice) public onlyOwner {\n        _price = newPrice;\n    }\n\n    function setMaxMint(uint256 newMaxMint) public onlyOwner {\n        _maxMint = newMaxMint;\n    }\n\n    function setMaxMintPerWallet(uint256 newMaxMintPerWallet) public onlyOwner {\n        _maxMintPerWallet = newMaxMintPerWallet;\n    }\n\n    function setProxyRegistryAddress(address newProxyRegistryAddress) public onlyOwner {\n        _proxyRegistryAddress = newProxyRegistryAddress;\n    }\n\n    function setBaseMetadataURI(string memory _newBaseMetadataURI) public onlyOwner {\n        _baseMetadataURI = _newBaseMetadataURI;\n    }\n\n    /**\n    * @dev calculates the next token ID based on value of _currentTokenID\n    * @return uint256 for the next token ID\n    */\n    function getNextTokenID() public view returns (uint256) {\n        return _currentTokenID + 1;\n    }\n\n    /**\n        * @dev increments the value of _currentTokenID\n        */\n    function _incrementTokenTypeId() private {\n        _currentTokenID++;\n    }\n\n\n    function mint(uint8 amount) public payable {\n        require(amount > 0, \"Wrong batch amout\");\n\n        uint256 tokenId = _currentTokenID;\n        require(tokenId + amount <= _maxMint, \"Amount reaches maxMint\");\n\n        address owner = owner();\n        address sender = _msgSender();\n        if(sender == owner) {\n            _mintBatch(sender, amount);\n            return;\n        }\n\n        require(mintsPerWallet[sender] + amount <= _maxMintPerWallet, \"Reached maxMintPerWallet\");\n\n        uint256 value = msg.value;\n        uint256 tokenPrice = _price;\n        require(value >= tokenPrice*amount, \"Not enough ETH\");\n\n        payable(owner).transfer(value);\n        _mintBatch(sender, amount);\n    }\n\n    function _mintBatch(address to, uint8 amount) internal {\n        for (uint i=0; i < amount; i++){\n            _incrementTokenTypeId();\n            uint256 tokenId = _currentTokenID;\n            mintsPerWallet[to] += 1;\n            _safeMint(to, tokenId);\n        }\n    }\n\n    function isApprovedForAll(address owner, address operator)\n        override\n        public\n        view\n        returns (bool)\n    {\n        // Whitelist OpenSea proxy contract for easy trading.\n        ProxyRegistry proxyRegistry = ProxyRegistry(_proxyRegistryAddress);\n        if (address(proxyRegistry.proxies(owner)) == operator) {\n            return true;\n        }\n\n        return super.isApprovedForAll(owner, operator);\n    }\n\n    function tokenURI(uint256 _id) public override view returns (string memory) {\n        require(_exists(_id), \"ERC721Tradable#uri: NONEXISTENT_TOKEN\");\n        return bytes(_baseMetadataURI).length > 0 ? string(abi.encodePacked(_baseMetadataURI, _id.toString())) : \"\";\n    }\n\n    function withdraw() public {\n        payable(owner()).transfer(address(this).balance);\n    }\n\n    function getPrice() public view returns(uint256) {\n        return _price;\n    }\n\n    function getMaxMint() public view returns(uint256) {\n        return _maxMint;\n    }\n\n    function getMaxMintperWallet() public view returns(uint256) {\n        return _maxMintPerWallet;\n    }\n}",
  "sourcePath": "/home/santiago/projects/defi_holdings/kongtama/src/ethereum/contracts/Kongtama.sol",
  "compiler": {
    "name": "solc",
    "version": "0.8.1+commit.df193b15.Emscripten.clang"
  },
  "schemaVersion": "3.4.4",
  "updatedAt": "2022-03-22T23:13:09.646Z",
  "networkType": "ethereum",
  "devdoc": {
    "kind": "dev",
    "methods": {
      "approve(address,uint256)": {
        "details": "See {IERC721-approve}."
      },
      "balanceOf(address)": {
        "details": "See {IERC721-balanceOf}."
      },
      "getApproved(uint256)": {
        "details": "See {IERC721-getApproved}."
      },
      "getNextTokenID()": {
        "details": "calculates the next token ID based on value of _currentTokenID",
        "returns": {
          "_0": "uint256 for the next token ID"
        }
      },
      "isApprovedForAll(address,address)": {
        "details": "See {IERC721-isApprovedForAll}."
      },
      "name()": {
        "details": "See {IERC721Metadata-name}."
      },
      "owner()": {
        "details": "Returns the address of the current owner."
      },
      "ownerOf(uint256)": {
        "details": "See {IERC721-ownerOf}."
      },
      "renounceOwnership()": {
        "details": "Leaves the contract without owner. It will not be possible to call `onlyOwner` functions anymore. Can only be called by the current owner. NOTE: Renouncing ownership will leave the contract without an owner, thereby removing any functionality that is only available to the owner."
      },
      "safeTransferFrom(address,address,uint256)": {
        "details": "See {IERC721-safeTransferFrom}."
      },
      "safeTransferFrom(address,address,uint256,bytes)": {
        "details": "See {IERC721-safeTransferFrom}."
      },
      "setApprovalForAll(address,bool)": {
        "details": "See {IERC721-setApprovalForAll}."
      },
      "supportsInterface(bytes4)": {
        "details": "See {IERC165-supportsInterface}."
      },
      "symbol()": {
        "details": "See {IERC721Metadata-symbol}."
      },
      "transferFrom(address,address,uint256)": {
        "details": "See {IERC721-transferFrom}."
      },
      "transferOwnership(address)": {
        "details": "Transfers ownership of the contract to a new account (`newOwner`). Can only be called by the current owner."
      }
    },
    "version": 1
  },
  "userdoc": {
    "kind": "user",
    "methods": {},
    "version": 1
  }
}